{
  "_format": "hh3-artifact-1",
  "contractName": "PaymentVerifier",
  "sourceName": "contracts/PaymentVerifier.sol",
  "abi": [
    {
      "inputs": [],
      "stateMutability": "nonpayable",
      "type": "constructor"
    },
    {
      "inputs": [
        {
          "internalType": "address",
          "name": "owner",
          "type": "address"
        }
      ],
      "name": "OwnableInvalidOwner",
      "type": "error"
    },
    {
      "inputs": [
        {
          "internalType": "address",
          "name": "account",
          "type": "address"
        }
      ],
      "name": "OwnableUnauthorizedAccount",
      "type": "error"
    },
    {
      "anonymous": false,
      "inputs": [
        {
          "indexed": true,
          "internalType": "address",
          "name": "previousOwner",
          "type": "address"
        },
        {
          "indexed": true,
          "internalType": "address",
          "name": "newOwner",
          "type": "address"
        }
      ],
      "name": "OwnershipTransferred",
      "type": "event"
    },
    {
      "anonymous": false,
      "inputs": [
        {
          "indexed": true,
          "internalType": "address",
          "name": "submitter",
          "type": "address"
        },
        {
          "indexed": false,
          "internalType": "bytes32",
          "name": "proofHash",
          "type": "bytes32"
        },
        {
          "indexed": false,
          "internalType": "string",
          "name": "reason",
          "type": "string"
        }
      ],
      "name": "PaymentRejected",
      "type": "event"
    },
    {
      "anonymous": false,
      "inputs": [
        {
          "indexed": true,
          "internalType": "address",
          "name": "employee",
          "type": "address"
        },
        {
          "indexed": true,
          "internalType": "uint256",
          "name": "periodId",
          "type": "uint256"
        },
        {
          "indexed": false,
          "internalType": "uint256",
          "name": "amount",
          "type": "uint256"
        },
        {
          "indexed": false,
          "internalType": "bytes32",
          "name": "proofHash",
          "type": "bytes32"
        },
        {
          "indexed": true,
          "internalType": "address",
          "name": "submitter",
          "type": "address"
        }
      ],
      "name": "PaymentVerified",
      "type": "event"
    },
    {
      "anonymous": false,
      "inputs": [
        {
          "indexed": true,
          "internalType": "address",
          "name": "employee",
          "type": "address"
        },
        {
          "indexed": true,
          "internalType": "uint256",
          "name": "periodId",
          "type": "uint256"
        },
        {
          "indexed": true,
          "internalType": "address",
          "name": "admin",
          "type": "address"
        }
      ],
      "name": "VerificationRevoked",
      "type": "event"
    },
    {
      "inputs": [
        {
          "internalType": "bytes32",
          "name": "proofHash",
          "type": "bytes32"
        }
      ],
      "name": "adminMarkProofSeen",
      "outputs": [],
      "stateMutability": "nonpayable",
      "type": "function"
    },
    {
      "inputs": [
        {
          "internalType": "address",
          "name": "employee",
          "type": "address"
        },
        {
          "internalType": "uint256",
          "name": "periodId",
          "type": "uint256"
        }
      ],
      "name": "isVerified",
      "outputs": [
        {
          "internalType": "bool",
          "name": "",
          "type": "bool"
        }
      ],
      "stateMutability": "view",
      "type": "function"
    },
    {
      "inputs": [],
      "name": "owner",
      "outputs": [
        {
          "internalType": "address",
          "name": "",
          "type": "address"
        }
      ],
      "stateMutability": "view",
      "type": "function"
    },
    {
      "inputs": [
        {
          "internalType": "bytes32",
          "name": "proofHash",
          "type": "bytes32"
        }
      ],
      "name": "proofSeen",
      "outputs": [
        {
          "internalType": "bool",
          "name": "",
          "type": "bool"
        }
      ],
      "stateMutability": "view",
      "type": "function"
    },
    {
      "inputs": [],
      "name": "renounceOwnership",
      "outputs": [],
      "stateMutability": "nonpayable",
      "type": "function"
    },
    {
      "inputs": [
        {
          "internalType": "address",
          "name": "employee",
          "type": "address"
        },
        {
          "internalType": "uint256",
          "name": "periodId",
          "type": "uint256"
        }
      ],
      "name": "revokeVerification",
      "outputs": [],
      "stateMutability": "nonpayable",
      "type": "function"
    },
    {
      "inputs": [
        {
          "internalType": "address",
          "name": "newOwner",
          "type": "address"
        }
      ],
      "name": "transferOwnership",
      "outputs": [],
      "stateMutability": "nonpayable",
      "type": "function"
    },
    {
      "inputs": [
        {
          "internalType": "bytes",
          "name": "facilitatorProof",
          "type": "bytes"
        }
      ],
      "name": "verifyPayment",
      "outputs": [
        {
          "internalType": "bool",
          "name": "",
          "type": "bool"
        }
      ],
      "stateMutability": "nonpayable",
      "type": "function"
    },
    {
      "inputs": [],
      "name": "version",
      "outputs": [
        {
          "internalType": "string",
          "name": "",
          "type": "string"
        }
      ],
      "stateMutability": "pure",
      "type": "function"
    }
  ],
  "bytecode": "0x6080604052348015600e575f5ffd5b503380603357604051631e4fbdf760e01b81525f600482015260240160405180910390fd5b603a81603f565b50608e565b5f80546001600160a01b038381166001600160a01b0319831681178455604051919092169283917f8be0079c531659141344cd1fd0a4f28419497f9722a3daafe3b4186f6b6457e09190a35050565b61083c8061009b5f395ff3fe608060405234801561000f575f5ffd5b5060043610610090575f3560e01c80638da5cb5b116100635780638da5cb5b146101185780639df9387614610132578063a70f0ad714610145578063d305d18214610167578063f2fde38b1461017a575f5ffd5b80631a2097761461009457806354fd4d50146100bc578063715018a6146100fb5780637e98cf0714610105575b5f5ffd5b6100a76100a23660046106d5565b61018d565b60405190151581526020015b60405180910390f35b604080518082018252601981527f5061796d656e7456657269666965722076302e312d7374756200000000000000602082015290516100b391906106fd565b6101036101ba565b005b6100a7610113366004610732565b6101cd565b5f546040516001600160a01b0390911681526020016100b3565b6101036101403660046106d5565b610518565b6100a76101533660046107a0565b5f9081526002602052604090205460ff1690565b6101036101753660046107a0565b6105e0565b6101036101883660046107b7565b610602565b6001600160a01b0382165f90815260016020908152604080832084845290915290205460ff165b92915050565b6101c261063f565b6101cb5f61066b565b565b5f5f83836040516101df9291906107d7565b60408051918290039091205f8181526002602052919091205490915060ff161561026657336001600160a01b03165f5160206107e75f395f51905f528260405161025591815260406020820181905260129082015271383937b7b316b0b63932b0b23c96b9b2b2b760711b606082015260800190565b60405180910390a25f9150506101b4565b60548310156102be57336001600160a01b03165f5160206107e75f395f51905f5282604051610255918152604060208201819052600f908201526e1c1c9bdbd98b5d1bdbcb5cda1bdc9d608a1b606082015260800190565b833560601c601485013560348601358261033357336001600160a01b03165f5160206107e75f395f51905f528560405161031f918152604060208201819052600d908201526c656d706c6f7965652d7a65726f60981b606082015260800190565b60405180910390a25f9450505050506101b4565b815f0361038757336001600160a01b03165f5160206107e75f395f51905f528560405161031f918152604060208201819052600d908201526c706572696f6469642d7a65726f60981b606082015260800190565b805f036103d957336001600160a01b03165f5160206107e75f395f51905f528560405161031f918152604060208201819052600b908201526a616d6f756e742d7a65726f60a81b606082015260800190565b6001600160a01b0383165f90815260016020908152604080832085845290915290205460ff161561048a57336001600160a01b03165f5160206107e75f395f51905f528560405161046091815260406020808301829052908201527f656d706c6f7965652d706572696f642d616c72656164792d7665726966696564606082015260800190565b60405180910390a25050505f908152600260205260408120805460ff1916600117905590506101b4565b6001600160a01b0383165f8181526001602081815260408084208785528252808420805460ff1990811685179091558985526002835293819020805490941690921790925580518481529182018790523392859290917fbaf5303a54c65af0700d9625b380a19eb19d67887e67f8326c00250e43241323910160405180910390a45060019695505050505050565b61052061063f565b6001600160a01b0382165f90815260016020908152604080832084845290915290205460ff166105865760405162461bcd60e51b815260206004820152600c60248201526b1b9bdd0b5d995c9a599a595960a21b60448201526064015b60405180910390fd5b6001600160a01b0382165f818152600160209081526040808320858452909152808220805460ff19169055513392849290917febb6ff32495bf6ec2a74476b485941bc83396b87f73c9ada0acbb45015ded7ea9190a45050565b6105e861063f565b5f908152600260205260409020805460ff19166001179055565b61060a61063f565b6001600160a01b03811661063357604051631e4fbdf760e01b81525f600482015260240161057d565b61063c8161066b565b50565b5f546001600160a01b031633146101cb5760405163118cdaa760e01b815233600482015260240161057d565b5f80546001600160a01b038381166001600160a01b0319831681178455604051919092169283917f8be0079c531659141344cd1fd0a4f28419497f9722a3daafe3b4186f6b6457e09190a35050565b80356001600160a01b03811681146106d0575f5ffd5b919050565b5f5f604083850312156106e6575f5ffd5b6106ef836106ba565b946020939093013593505050565b602081525f82518060208401528060208501604085015e5f604082850101526040601f19601f83011684010191505092915050565b5f5f60208385031215610743575f5ffd5b823567ffffffffffffffff811115610759575f5ffd5b8301601f81018513610769575f5ffd5b803567ffffffffffffffff81111561077f575f5ffd5b856020828401011115610790575f5ffd5b6020919091019590945092505050565b5f602082840312156107b0575f5ffd5b5035919050565b5f602082840312156107c7575f5ffd5b6107d0826106ba565b9392505050565b818382375f910190815291905056feba0046c3bedd34d83ac3af8be5bdded083fb088116ab1a0d63b74c89a74ddd87a26469706673582212207782f1674919dffbb4f0163de886e153fa3bb3aa22c7d94558c5f686c5f0eb1c64736f6c634300081c0033",
  "linkReferences": {},
  "deployedLinkReferences": {},
  "immutableReferences": {},
  "inputSourceName": "project/contracts/PaymentVerifier.sol",
  "buildInfoId": "solc-0_8_28-42c6f262efe0986093c30f68bdc71f9b2136c9a6"
}