{
  "_format": "hh3-artifact-1",
  "contractName": "PayrollVault",
  "sourceName": "contracts/PayrollVault.sol",
  "abi": [
    {
      "inputs": [
        {
          "internalType": "address",
          "name": "_token",
          "type": "address"
        },
        {
          "internalType": "address",
          "name": "_salarySchedule",
          "type": "address"
        },
        {
          "internalType": "address",
          "name": "_paymentVerifier",
          "type": "address"
        }
      ],
      "stateMutability": "nonpayable",
      "type": "constructor"
    },
    {
      "inputs": [
        {
          "internalType": "address",
          "name": "owner",
          "type": "address"
        }
      ],
      "name": "OwnableInvalidOwner",
      "type": "error"
    },
    {
      "inputs": [
        {
          "internalType": "address",
          "name": "account",
          "type": "address"
        }
      ],
      "name": "OwnableUnauthorizedAccount",
      "type": "error"
    },
    {
      "inputs": [],
      "name": "ReentrancyGuardReentrantCall",
      "type": "error"
    },
    {
      "inputs": [
        {
          "internalType": "address",
          "name": "token",
          "type": "address"
        }
      ],
      "name": "SafeERC20FailedOperation",
      "type": "error"
    },
    {
      "anonymous": false,
      "inputs": [
        {
          "indexed": true,
          "internalType": "address",
          "name": "employee",
          "type": "address"
        },
        {
          "indexed": false,
          "internalType": "uint256",
          "name": "salary",
          "type": "uint256"
        },
        {
          "indexed": false,
          "internalType": "enum PayrollVault.Cadence",
          "name": "cadence",
          "type": "uint8"
        }
      ],
      "name": "EmployeeAssigned",
      "type": "event"
    },
    {
      "anonymous": false,
      "inputs": [
        {
          "indexed": true,
          "internalType": "address",
          "name": "to",
          "type": "address"
        },
        {
          "indexed": false,
          "internalType": "uint256",
          "name": "amount",
          "type": "uint256"
        }
      ],
      "name": "ExcessWithdrawn",
      "type": "event"
    },
    {
      "anonymous": false,
      "inputs": [
        {
          "indexed": true,
          "internalType": "address",
          "name": "previousOwner",
          "type": "address"
        },
        {
          "indexed": true,
          "internalType": "address",
          "name": "newOwner",
          "type": "address"
        }
      ],
      "name": "OwnershipTransferred",
      "type": "event"
    },
    {
      "anonymous": false,
      "inputs": [
        {
          "indexed": true,
          "internalType": "address",
          "name": "verifier",
          "type": "address"
        }
      ],
      "name": "PaymentVerifierUpdated",
      "type": "event"
    },
    {
      "anonymous": false,
      "inputs": [
        {
          "indexed": true,
          "internalType": "address",
          "name": "from",
          "type": "address"
        },
        {
          "indexed": true,
          "internalType": "uint256",
          "name": "periodId",
          "type": "uint256"
        },
        {
          "indexed": false,
          "internalType": "uint256",
          "name": "amount",
          "type": "uint256"
        }
      ],
      "name": "PayrollDeposited",
      "type": "event"
    },
    {
      "anonymous": false,
      "inputs": [
        {
          "indexed": true,
          "internalType": "address",
          "name": "employee",
          "type": "address"
        },
        {
          "indexed": true,
          "internalType": "uint256",
          "name": "periodId",
          "type": "uint256"
        },
        {
          "indexed": false,
          "internalType": "uint256",
          "name": "amount",
          "type": "uint256"
        },
        {
          "indexed": true,
          "internalType": "address",
          "name": "to",
          "type": "address"
        }
      ],
      "name": "SalaryReleased",
      "type": "event"
    },
    {
      "anonymous": false,
      "inputs": [
        {
          "indexed": true,
          "internalType": "address",
          "name": "schedule",
          "type": "address"
        }
      ],
      "name": "SalaryScheduleUpdated",
      "type": "event"
    },
    {
      "inputs": [
        {
          "internalType": "address",
          "name": "employee",
          "type": "address"
        },
        {
          "internalType": "uint256",
          "name": "periodId",
          "type": "uint256"
        }
      ],
      "name": "adminClearPaid",
      "outputs": [],
      "stateMutability": "nonpayable",
      "type": "function"
    },
    {
      "inputs": [
        {
          "internalType": "address",
          "name": "_employee",
          "type": "address"
        },
        {
          "internalType": "uint256",
          "name": "_salary",
          "type": "uint256"
        },
        {
          "internalType": "uint8",
          "name": "cadence",
          "type": "uint8"
        },
        {
          "internalType": "uint256",
          "name": "initialLastPaid",
          "type": "uint256"
        }
      ],
      "name": "assignEmployee",
      "outputs": [],
      "stateMutability": "nonpayable",
      "type": "function"
    },
    {
      "inputs": [
        {
          "internalType": "uint256",
          "name": "periodId",
          "type": "uint256"
        },
        {
          "internalType": "uint256",
          "name": "amount",
          "type": "uint256"
        }
      ],
      "name": "depositPayroll",
      "outputs": [],
      "stateMutability": "nonpayable",
      "type": "function"
    },
    {
      "inputs": [
        {
          "internalType": "address",
          "name": "",
          "type": "address"
        }
      ],
      "name": "employees",
      "outputs": [
        {
          "internalType": "uint256",
          "name": "salary",
          "type": "uint256"
        },
        {
          "internalType": "enum PayrollVault.Cadence",
          "name": "cadence",
          "type": "uint8"
        },
        {
          "internalType": "bool",
          "name": "exists",
          "type": "bool"
        }
      ],
      "stateMutability": "view",
      "type": "function"
    },
    {
      "inputs": [
        {
          "internalType": "address",
          "name": "employee",
          "type": "address"
        },
        {
          "internalType": "uint256",
          "name": "periodId",
          "type": "uint256"
        }
      ],
      "name": "isPaid",
      "outputs": [
        {
          "internalType": "bool",
          "name": "",
          "type": "bool"
        }
      ],
      "stateMutability": "view",
      "type": "function"
    },
    {
      "inputs": [],
      "name": "owner",
      "outputs": [
        {
          "internalType": "address",
          "name": "",
          "type": "address"
        }
      ],
      "stateMutability": "view",
      "type": "function"
    },
    {
      "inputs": [
        {
          "internalType": "address",
          "name": "",
          "type": "address"
        },
        {
          "internalType": "uint256",
          "name": "",
          "type": "uint256"
        }
      ],
      "name": "paid",
      "outputs": [
        {
          "internalType": "bool",
          "name": "",
          "type": "bool"
        }
      ],
      "stateMutability": "view",
      "type": "function"
    },
    {
      "inputs": [],
      "name": "paymentVerifier",
      "outputs": [
        {
          "internalType": "contract IPaymentVerifier",
          "name": "",
          "type": "address"
        }
      ],
      "stateMutability": "view",
      "type": "function"
    },
    {
      "inputs": [
        {
          "internalType": "uint256",
          "name": "",
          "type": "uint256"
        }
      ],
      "name": "periodBalances",
      "outputs": [
        {
          "internalType": "uint256",
          "name": "",
          "type": "uint256"
        }
      ],
      "stateMutability": "view",
      "type": "function"
    },
    {
      "inputs": [
        {
          "internalType": "address",
          "name": "employee",
          "type": "address"
        },
        {
          "internalType": "uint256",
          "name": "periodId",
          "type": "uint256"
        }
      ],
      "name": "releaseSalary",
      "outputs": [],
      "stateMutability": "nonpayable",
      "type": "function"
    },
    {
      "inputs": [],
      "name": "renounceOwnership",
      "outputs": [],
      "stateMutability": "nonpayable",
      "type": "function"
    },
    {
      "inputs": [
        {
          "internalType": "address",
          "name": "to",
          "type": "address"
        },
        {
          "internalType": "uint256",
          "name": "amount",
          "type": "uint256"
        }
      ],
      "name": "rescueTokens",
      "outputs": [],
      "stateMutability": "nonpayable",
      "type": "function"
    },
    {
      "inputs": [],
      "name": "salarySchedule",
      "outputs": [
        {
          "internalType": "contract ISalarySchedule",
          "name": "",
          "type": "address"
        }
      ],
      "stateMutability": "view",
      "type": "function"
    },
    {
      "inputs": [
        {
          "internalType": "address",
          "name": "_verifier",
          "type": "address"
        }
      ],
      "name": "setPaymentVerifier",
      "outputs": [],
      "stateMutability": "nonpayable",
      "type": "function"
    },
    {
      "inputs": [
        {
          "internalType": "address",
          "name": "_schedule",
          "type": "address"
        }
      ],
      "name": "setSalarySchedule",
      "outputs": [],
      "stateMutability": "nonpayable",
      "type": "function"
    },
    {
      "inputs": [],
      "name": "token",
      "outputs": [
        {
          "internalType": "contract IERC20",
          "name": "",
          "type": "address"
        }
      ],
      "stateMutability": "view",
      "type": "function"
    },
    {
      "inputs": [],
      "name": "totalBalance",
      "outputs": [
        {
          "internalType": "uint256",
          "name": "",
          "type": "uint256"
        }
      ],
      "stateMutability": "view",
      "type": "function"
    },
    {
      "inputs": [
        {
          "internalType": "address",
          "name": "newOwner",
          "type": "address"
        }
      ],
      "name": "transferOwnership",
      "outputs": [],
      "stateMutability": "nonpayable",
      "type": "function"
    },
    {
      "inputs": [
        {
          "internalType": "address",
          "name": "to",
          "type": "address"
        },
        {
          "internalType": "uint256",
          "name": "amount",
          "type": "uint256"
        }
      ],
      "name": "withdrawExcess",
      "outputs": [],
      "stateMutability": "nonpayable",
      "type": "function"
    }
  ],
  "bytecode": "0x60a060405234801561000f575f5ffd5b5060405161163938038061163983398101604081905261002e916101c9565b338061005457604051631e4fbdf760e01b81525f60048201526024015b60405180910390fd5b61005d8161015f565b50600180556001600160a01b0383166100a55760405162461bcd60e51b815260206004820152600a602482015269746f6b656e2d7a65726f60b01b604482015260640161004b565b6001600160a01b0380841660805282161561010157600280546001600160a01b0319166001600160a01b0384169081179091556040517f5d017427e11ccbb0ed33dd20783cadd26d204ff60205bd25a7af925ba605a982905f90a25b6001600160a01b0381161561015757600380546001600160a01b0319166001600160a01b0383169081179091556040517fc141915a52984dec25d66842b2a3c5e3b94af1293828467893055b381d0d29de905f90a25b505050610209565b5f80546001600160a01b038381166001600160a01b0319831681178455604051919092169283917f8be0079c531659141344cd1fd0a4f28419497f9722a3daafe3b4186f6b6457e09190a35050565b80516001600160a01b03811681146101c4575f5ffd5b919050565b5f5f5f606084860312156101db575f5ffd5b6101e4846101ae565b92506101f2602085016101ae565b9150610200604085016101ae565b90509250925092565b6080516113fc61023d5f395f81816102f401528181610698015281816107b401528181610c310152610d6e01526113fc5ff3fe608060405234801561000f575f5ffd5b506004361061011c575f3560e01c806385bd7fe3116100a9578063cbcce4fa1161006e578063cbcce4fa14610275578063d067894714610288578063d95f2759146102c9578063f2fde38b146102dc578063fc0c546a146102ef575f5ffd5b806385bd7fe3146101f95780638c7266181461020c5780638da5cb5b14610249578063ad7a672f14610259578063b6455cb014610262575f5ffd5b806357376198116100ef578063573761981461018b5780635ba17c601461019e5780636e90013d146101cb578063715018a6146101de5780637b24575a146101e6575f5ffd5b8063075594091461012057806328ff879f1461013557806346f3538a1461016557806354951dc114610178575b5f5ffd5b61013361012e366004611124565b610316565b005b600354610148906001600160a01b031681565b6040516001600160a01b0390911681526020015b60405180910390f35b61013361017336600461116c565b610570565b610133610186366004611194565b6105a4565b61013361019936600461116c565b61063b565b6101bd6101ac3660046111b4565b60046020525f908152604090205481565b60405190815260200161015c565b6101336101d936600461116c565b6106cc565b610133610829565b600254610148906001600160a01b031681565b61013361020736600461116c565b61083c565b61023961021a36600461116c565b600660209081525f928352604080842090915290825290205460ff1681565b604051901515815260200161015c565b5f546001600160a01b0316610148565b6101bd60075481565b6101336102703660046111cb565b610d14565b61023961028336600461116c565b610e10565b6102ba610296366004611194565b60056020525f90815260409020805460019091015460ff8082169161010090041683565b60405161015c9392919061121f565b6101336102d7366004611194565b610e3d565b6101336102ea366004611194565b610ed4565b6101487f000000000000000000000000000000000000000000000000000000000000000081565b61031e610f11565b6001600160a01b0384166103695760405162461bcd60e51b815260206004820152600d60248201526c656d706c6f7965652d7a65726f60981b60448201526064015b60405180910390fd5b5f83116103a65760405162461bcd60e51b815260206004820152600b60248201526a73616c6172792d7a65726f60a81b6044820152606401610360565b600260ff831611156103ec5760405162461bcd60e51b815260206004820152600f60248201526e696e76616c69642d636164656e636560881b6044820152606401610360565b60405180606001604052808481526020018360ff166002811115610412576104126111eb565b6002811115610423576104236111eb565b8152600160209182018190526001600160a01b0387165f9081526005835260409020835181559183015182820180549192909160ff19169083600281111561046d5761046d6111eb565b021790555060409190910151600190910180549115156101000261ff00199092169190911790556001600160a01b0384167f35e2bb22915e00b64acd99be5fcfe524e19ed77803fb46326a1c309b6122a4e38460ff851660028111156104d5576104d56111eb565b6040516104e3929190611243565b60405180910390a26002546001600160a01b03161561056a57600254604051630755940960e01b81526001600160a01b0386811660048301526024820186905260ff8516604483015260648201849052909116906307559409906084015f604051808303815f87803b158015610557575f5ffd5b505af1925050508015610568575060015b505b50505050565b610578610f11565b6001600160a01b039091165f90815260066020908152604080832093835292905220805460ff19169055565b6105ac610f11565b6001600160a01b0381166105f25760405162461bcd60e51b815260206004820152600d60248201526c7363686564756c652d7a65726f60981b6044820152606401610360565b600280546001600160a01b0319166001600160a01b0383169081179091556040517f5d017427e11ccbb0ed33dd20783cadd26d204ff60205bd25a7af925ba605a982905f90a250565b610643610f11565b61064b610f3d565b6001600160a01b03821661068b5760405162461bcd60e51b8152602060048201526007602482015266746f2d7a65726f60c81b6044820152606401610360565b6106bf6001600160a01b037f0000000000000000000000000000000000000000000000000000000000000000168383610f67565b6106c860018055565b5050565b6106d4610f11565b6106dc610f3d565b6001600160a01b03821661071c5760405162461bcd60e51b8152602060048201526007602482015266746f2d7a65726f60c81b6044820152606401610360565b5f610725610fcb565b90505f8160075411610737575f610745565b81600754610745919061126b565b9050808311156107905760405162461bcd60e51b8152602060048201526016602482015275696e73756666696369656e742d617661696c61626c6560501b6044820152606401610360565b8260075f8282546107a1919061126b565b909155506107db90506001600160a01b037f0000000000000000000000000000000000000000000000000000000000000000168585610f67565b836001600160a01b03167f9bdedcc968f2c0682145c20289dfbb3081a39684571116ab45eabfef512e94738460405161081691815260200190565b60405180910390a250506106c860018055565b610831610f11565b61083a5f611015565b565b610844610f11565b61084c610f3d565b6001600160a01b0382165f908152600560209081526040808320815160608101909252805482526001810154919290919083019060ff166002811115610894576108946111eb565b60028111156108a5576108a56111eb565b815260019190910154610100900460ff161515602090910152604081015190915061090a5760405162461bcd60e51b8152602060048201526015602482015274195b5c1b1bde59594b5b9bdd0b585cdcda59db9959605a1b6044820152606401610360565b6001600160a01b0383165f90815260066020908152604080832085845290915290205460ff161561096c5760405162461bcd60e51b815260206004820152600c60248201526b185b1c9958591e4b5c185a5960a21b6044820152606401610360565b6002546001600160a01b031615610a2157600254604051637dec149f60e11b81526001600160a01b038581166004830152602482018590525f92839291169063fbd8293e906044015f60405180830381865afa1580156109ce573d5f5f3e3d5ffd5b505050506040513d5f823e601f3d908101601f191682016040526109f591908101906112a1565b91509150818190610a195760405162461bcd60e51b81526004016103609190611365565b505050610a5c565b60405162461bcd60e51b815260206004820152601060248201526f1cd8da19591d5b194b5b9bdd0b5cd95d60821b6044820152606401610360565b6003546001600160a01b031615610b2857600354604051630d104bbb60e11b81526001600160a01b0385811660048301526024820185905290911690631a20977690604401602060405180830381865afa158015610abc573d5f5f3e3d5ffd5b505050506040513d601f19601f82011682018060405250810190610ae0919061139a565b610b235760405162461bcd60e51b81526020600482015260146024820152731c185e5b595b9d0b5b9bdd0b5d995c9a599a595960621b6044820152606401610360565b610b63565b60405162461bcd60e51b815260206004820152601060248201526f1d995c9a599a595c8b5b9bdd0b5cd95d60821b6044820152606401610360565b80515f83815260046020526040902054811115610bc25760405162461bcd60e51b815260206004820152601960248201527f696e73756666696369656e742d706572696f642d66756e6473000000000000006044820152606401610360565b6001600160a01b0384165f9081526006602090815260408083208684528252808320805460ff19166001179055600490915281208054839290610c0690849061126b565b925050819055508060075f828254610c1e919061126b565b90915550610c5890506001600160a01b037f0000000000000000000000000000000000000000000000000000000000000000168583610f67565b836001600160a01b031683856001600160a01b03167f37c5e7989a6ce4c605c20364dabfb1b7066fe183274e8d77613c1a968346f36784604051610c9e91815260200190565b60405180910390a46002546040516322fd5b9f60e01b81526001600160a01b03868116600483015260248201869052426044830152909116906322fd5b9f906064015f604051808303815f87803b158015610cf7575f5ffd5b505af1925050508015610d08575060015b5050506106c860018055565b610d1c610f11565b610d24610f3d565b5f8111610d615760405162461bcd60e51b815260206004820152600b60248201526a616d6f756e742d7a65726f60a81b6044820152606401610360565b610d966001600160a01b037f000000000000000000000000000000000000000000000000000000000000000016333084611064565b5f8281526004602052604081208054839290610db39084906113b3565b925050819055508060075f828254610dcb91906113b3565b9091555050604051818152829033907fe8611d01f945d503d5ef4f40ea7136efa00457cdbbd85ef108b3d5046dd47d7e9060200160405180910390a36106c860018055565b6001600160a01b0382165f90815260066020908152604080832084845290915290205460ff165b92915050565b610e45610f11565b6001600160a01b038116610e8b5760405162461bcd60e51b815260206004820152600d60248201526c76657269666965722d7a65726f60981b6044820152606401610360565b600380546001600160a01b0319166001600160a01b0383169081179091556040517fc141915a52984dec25d66842b2a3c5e3b94af1293828467893055b381d0d29de905f90a250565b610edc610f11565b6001600160a01b038116610f0557604051631e4fbdf760e01b81525f6004820152602401610360565b610f0e81611015565b50565b5f546001600160a01b0316331461083a5760405163118cdaa760e01b8152336004820152602401610360565b600260015403610f6057604051633ee5aeb560e01b815260040160405180910390fd5b6002600155565b6040516001600160a01b03838116602483015260448201839052610fc691859182169063a9059cbb906064015b604051602081830303815290604052915060e01b6020820180516001600160e01b03838183161783525050505061109d565b505050565b60405162461bcd60e51b815260206004820152601d60248201527f6e6f742d696d706c656d656e7465642d746f74616c526573657276656400000060448201525f90606401610360565b5f80546001600160a01b038381166001600160a01b0319831681178455604051919092169283917f8be0079c531659141344cd1fd0a4f28419497f9722a3daafe3b4186f6b6457e09190a35050565b6040516001600160a01b03848116602483015283811660448301526064820183905261056a9186918216906323b872dd90608401610f94565b5f5f60205f8451602086015f885af1806110bc576040513d5f823e3d81fd5b50505f513d915081156110d35780600114156110e0565b6001600160a01b0384163b155b1561056a57604051635274afe760e01b81526001600160a01b0385166004820152602401610360565b80356001600160a01b038116811461111f575f5ffd5b919050565b5f5f5f5f60808587031215611137575f5ffd5b61114085611109565b935060208501359250604085013560ff8116811461115c575f5ffd5b9396929550929360600135925050565b5f5f6040838503121561117d575f5ffd5b61118683611109565b946020939093013593505050565b5f602082840312156111a4575f5ffd5b6111ad82611109565b9392505050565b5f602082840312156111c4575f5ffd5b5035919050565b5f5f604083850312156111dc575f5ffd5b50508035926020909101359150565b634e487b7160e01b5f52602160045260245ffd5b6003811061121b57634e487b7160e01b5f52602160045260245ffd5b9052565b8381526060810161123360208301856111ff565b8215156040830152949350505050565b828152604081016111ad60208301846111ff565b634e487b7160e01b5f52601160045260245ffd5b81810381811115610e3757610e37611257565b8051801515811461111f575f5ffd5b634e487b7160e01b5f52604160045260245ffd5b5f5f604083850312156112b2575f5ffd5b6112bb8361127e565b9150602083015167ffffffffffffffff8111156112d6575f5ffd5b8301601f810185136112e6575f5ffd5b805167ffffffffffffffff8111156113005761130061128d565b604051601f8201601f19908116603f0116810167ffffffffffffffff8111828210171561132f5761132f61128d565b604052818152828201602001871015611346575f5ffd5b8160208401602083015e5f602083830101528093505050509250929050565b602081525f82518060208401528060208501604085015e5f604082850101526040601f19601f83011684010191505092915050565b5f602082840312156113aa575f5ffd5b6111ad8261127e565b80820180821115610e3757610e3761125756fea26469706673582212201285517f14d905c0becf63e5017acfccd7d07dd81a7e9ffbba29ae58ef618fbd64736f6c634300081c0033",
  "linkReferences": {},
  "deployedLinkReferences": {},
  "immutableReferences": {
    "956": [
      {
        "length": 32,
        "start": 756
      },
      {
        "length": 32,
        "start": 1688
      },
      {
        "length": 32,
        "start": 1972
      },
      {
        "length": 32,
        "start": 3121
      },
      {
        "length": 32,
        "start": 3438
      }
    ]
  },
  "inputSourceName": "project/contracts/PayrollVault.sol",
  "buildInfoId": "solc-0_8_28-8432b9b363e43dda8cbf6a3e14950fc727207ab4"
}