{
  "_format": "hh3-artifact-1",
  "contractName": "PayrollVault",
  "sourceName": "contracts/PayrollVault.sol",
  "abi": [
    {
      "inputs": [
        {
          "internalType": "address",
          "name": "_token",
          "type": "address"
        },
        {
          "internalType": "address",
          "name": "_salarySchedule",
          "type": "address"
        }
      ],
      "stateMutability": "nonpayable",
      "type": "constructor"
    },
    {
      "inputs": [
        {
          "internalType": "address",
          "name": "owner",
          "type": "address"
        }
      ],
      "name": "OwnableInvalidOwner",
      "type": "error"
    },
    {
      "inputs": [
        {
          "internalType": "address",
          "name": "account",
          "type": "address"
        }
      ],
      "name": "OwnableUnauthorizedAccount",
      "type": "error"
    },
    {
      "inputs": [],
      "name": "ReentrancyGuardReentrantCall",
      "type": "error"
    },
    {
      "inputs": [
        {
          "internalType": "address",
          "name": "token",
          "type": "address"
        }
      ],
      "name": "SafeERC20FailedOperation",
      "type": "error"
    },
    {
      "anonymous": false,
      "inputs": [
        {
          "indexed": true,
          "internalType": "address",
          "name": "to",
          "type": "address"
        },
        {
          "indexed": false,
          "internalType": "uint256",
          "name": "amount",
          "type": "uint256"
        }
      ],
      "name": "FundsWithdrawn",
      "type": "event"
    },
    {
      "anonymous": false,
      "inputs": [
        {
          "indexed": true,
          "internalType": "address",
          "name": "previousOwner",
          "type": "address"
        },
        {
          "indexed": true,
          "internalType": "address",
          "name": "newOwner",
          "type": "address"
        }
      ],
      "name": "OwnershipTransferred",
      "type": "event"
    },
    {
      "anonymous": false,
      "inputs": [
        {
          "indexed": true,
          "internalType": "address",
          "name": "employee",
          "type": "address"
        },
        {
          "indexed": true,
          "internalType": "uint256",
          "name": "periodId",
          "type": "uint256"
        },
        {
          "indexed": false,
          "internalType": "uint256",
          "name": "amount",
          "type": "uint256"
        },
        {
          "indexed": false,
          "internalType": "uint256",
          "name": "timestamp",
          "type": "uint256"
        }
      ],
      "name": "PaymentRecorded",
      "type": "event"
    },
    {
      "anonymous": false,
      "inputs": [
        {
          "indexed": true,
          "internalType": "address",
          "name": "from",
          "type": "address"
        },
        {
          "indexed": true,
          "internalType": "uint256",
          "name": "periodId",
          "type": "uint256"
        },
        {
          "indexed": false,
          "internalType": "uint256",
          "name": "amount",
          "type": "uint256"
        }
      ],
      "name": "PayrollDeposited",
      "type": "event"
    },
    {
      "anonymous": false,
      "inputs": [
        {
          "indexed": true,
          "internalType": "address",
          "name": "schedule",
          "type": "address"
        }
      ],
      "name": "SalaryScheduleUpdated",
      "type": "event"
    },
    {
      "inputs": [
        {
          "internalType": "address",
          "name": "employee",
          "type": "address"
        },
        {
          "internalType": "uint256",
          "name": "periodId",
          "type": "uint256"
        }
      ],
      "name": "adminClearPaid",
      "outputs": [],
      "stateMutability": "nonpayable",
      "type": "function"
    },
    {
      "inputs": [
        {
          "internalType": "uint256",
          "name": "periodId",
          "type": "uint256"
        },
        {
          "internalType": "uint256",
          "name": "amount",
          "type": "uint256"
        }
      ],
      "name": "depositPayroll",
      "outputs": [],
      "stateMutability": "nonpayable",
      "type": "function"
    },
    {
      "inputs": [
        {
          "internalType": "uint256",
          "name": "periodId",
          "type": "uint256"
        }
      ],
      "name": "getPeriodBalance",
      "outputs": [
        {
          "internalType": "uint256",
          "name": "",
          "type": "uint256"
        }
      ],
      "stateMutability": "view",
      "type": "function"
    },
    {
      "inputs": [],
      "name": "getVaultBalance",
      "outputs": [
        {
          "internalType": "uint256",
          "name": "",
          "type": "uint256"
        }
      ],
      "stateMutability": "view",
      "type": "function"
    },
    {
      "inputs": [
        {
          "internalType": "address",
          "name": "employee",
          "type": "address"
        },
        {
          "internalType": "uint256",
          "name": "periodId",
          "type": "uint256"
        }
      ],
      "name": "isPaid",
      "outputs": [
        {
          "internalType": "bool",
          "name": "",
          "type": "bool"
        }
      ],
      "stateMutability": "view",
      "type": "function"
    },
    {
      "inputs": [],
      "name": "owner",
      "outputs": [
        {
          "internalType": "address",
          "name": "",
          "type": "address"
        }
      ],
      "stateMutability": "view",
      "type": "function"
    },
    {
      "inputs": [
        {
          "internalType": "address",
          "name": "",
          "type": "address"
        },
        {
          "internalType": "uint256",
          "name": "",
          "type": "uint256"
        }
      ],
      "name": "paid",
      "outputs": [
        {
          "internalType": "bool",
          "name": "",
          "type": "bool"
        }
      ],
      "stateMutability": "view",
      "type": "function"
    },
    {
      "inputs": [
        {
          "internalType": "uint256",
          "name": "",
          "type": "uint256"
        }
      ],
      "name": "periodBalances",
      "outputs": [
        {
          "internalType": "uint256",
          "name": "",
          "type": "uint256"
        }
      ],
      "stateMutability": "view",
      "type": "function"
    },
    {
      "inputs": [
        {
          "internalType": "address",
          "name": "employee",
          "type": "address"
        },
        {
          "internalType": "uint256",
          "name": "periodId",
          "type": "uint256"
        },
        {
          "internalType": "uint256",
          "name": "amount",
          "type": "uint256"
        }
      ],
      "name": "recordPayment",
      "outputs": [],
      "stateMutability": "nonpayable",
      "type": "function"
    },
    {
      "inputs": [],
      "name": "renounceOwnership",
      "outputs": [],
      "stateMutability": "nonpayable",
      "type": "function"
    },
    {
      "inputs": [
        {
          "internalType": "address",
          "name": "tokenAddress",
          "type": "address"
        },
        {
          "internalType": "address",
          "name": "to",
          "type": "address"
        },
        {
          "internalType": "uint256",
          "name": "amount",
          "type": "uint256"
        }
      ],
      "name": "rescueTokens",
      "outputs": [],
      "stateMutability": "nonpayable",
      "type": "function"
    },
    {
      "inputs": [],
      "name": "salarySchedule",
      "outputs": [
        {
          "internalType": "contract ISalarySchedule",
          "name": "",
          "type": "address"
        }
      ],
      "stateMutability": "view",
      "type": "function"
    },
    {
      "inputs": [
        {
          "internalType": "address",
          "name": "_schedule",
          "type": "address"
        }
      ],
      "name": "setSalarySchedule",
      "outputs": [],
      "stateMutability": "nonpayable",
      "type": "function"
    },
    {
      "inputs": [],
      "name": "token",
      "outputs": [
        {
          "internalType": "contract IERC20",
          "name": "",
          "type": "address"
        }
      ],
      "stateMutability": "view",
      "type": "function"
    },
    {
      "inputs": [],
      "name": "totalBalance",
      "outputs": [
        {
          "internalType": "uint256",
          "name": "",
          "type": "uint256"
        }
      ],
      "stateMutability": "view",
      "type": "function"
    },
    {
      "inputs": [
        {
          "internalType": "address",
          "name": "newOwner",
          "type": "address"
        }
      ],
      "name": "transferOwnership",
      "outputs": [],
      "stateMutability": "nonpayable",
      "type": "function"
    },
    {
      "inputs": [
        {
          "internalType": "address",
          "name": "to",
          "type": "address"
        },
        {
          "internalType": "uint256",
          "name": "amount",
          "type": "uint256"
        }
      ],
      "name": "withdrawExcess",
      "outputs": [],
      "stateMutability": "nonpayable",
      "type": "function"
    }
  ],
  "bytecode": "0x60a060405234801561000f575f5ffd5b5060405161102b38038061102b83398101604081905261002e916101a8565b338061005457604051631e4fbdf760e01b81525f60048201526024015b60405180910390fd5b61005d8161013e565b50600180556001600160a01b0382166100a55760405162461bcd60e51b815260206004820152600a602482015269746f6b656e2d7a65726f60b01b604482015260640161004b565b6001600160a01b0381166100eb5760405162461bcd60e51b815260206004820152600d60248201526c7363686564756c652d7a65726f60981b604482015260640161004b565b6001600160a01b03828116608052600280546001600160a01b03191691831691821790556040517f5d017427e11ccbb0ed33dd20783cadd26d204ff60205bd25a7af925ba605a982905f90a250506101d9565b5f80546001600160a01b038381166001600160a01b0319831681178455604051919092169283917f8be0079c531659141344cd1fd0a4f28419497f9722a3daafe3b4186f6b6457e09190a35050565b80516001600160a01b03811681146101a3575f5ffd5b919050565b5f5f604083850312156101b9575f5ffd5b6101c28361018d565b91506101d06020840161018d565b90509250929050565b608051610e256102065f395f818161028b0152818161043a0152818161051e01526109240152610e255ff3fe608060405234801561000f575f5ffd5b5060043610610106575f3560e01c80638da5cb5b1161009e578063cc9d6dff1161006e578063cc9d6dff14610245578063cea9d26f14610258578063ed12e8ef1461026b578063f2fde38b14610273578063fc0c546a14610286575f5ffd5b80638da5cb5b14610206578063ad7a672f14610216578063b6455cb01461021f578063cbcce4fa14610232575f5ffd5b8063715018a6116100d9578063715018a61461017757806377b408cd1461017f5780637b24575a1461019e5780638c726618146101c9575f5ffd5b806346f3538a1461010a57806354951dc11461011f5780635ba17c60146101325780636e90013d14610164575b5f5ffd5b61011d610118366004610ba1565b6102ad565b005b61011d61012d366004610bc9565b6102e1565b610151610140366004610be9565b60036020525f908152604090205481565b6040519081526020015b60405180910390f35b61011d610172366004610ba1565b61037d565b61011d6104b1565b61015161018d366004610be9565b5f9081526003602052604090205490565b6002546101b1906001600160a01b031681565b6040516001600160a01b03909116815260200161015b565b6101f66101d7366004610ba1565b600460209081525f928352604080842090915290825290205460ff1681565b604051901515815260200161015b565b5f546001600160a01b03166101b1565b61015160055481565b61011d61022d366004610c00565b6104c4565b6101f6610240366004610ba1565b6105c0565b61011d610253366004610c20565b6105ed565b61011d610266366004610c50565b6108a0565b61015161090d565b61011d610281366004610bc9565b61099a565b6101b17f000000000000000000000000000000000000000000000000000000000000000081565b6102b56109d7565b6001600160a01b039091165f90815260046020908152604080832093835292905220805460ff19169055565b6102e96109d7565b6001600160a01b0381166103345760405162461bcd60e51b815260206004820152600d60248201526c7363686564756c652d7a65726f60981b60448201526064015b60405180910390fd5b600280546001600160a01b0319166001600160a01b0383169081179091556040517f5d017427e11ccbb0ed33dd20783cadd26d204ff60205bd25a7af925ba605a982905f90a250565b6103856109d7565b61038d610a03565b6001600160a01b0382166103cd5760405162461bcd60e51b8152602060048201526007602482015266746f2d7a65726f60c81b604482015260640161032b565b6005548111156104165760405162461bcd60e51b8152602060048201526014602482015273696e73756666696369656e742d62616c616e636560601b604482015260640161032b565b8060055f8282546104279190610c9e565b9091555061046190506001600160a01b037f0000000000000000000000000000000000000000000000000000000000000000168383610a2d565b816001600160a01b03167feaff4b37086828766ad3268786972c0cd24259d4c87a80f9d3963a3c3d999b0d8260405161049c91815260200190565b60405180910390a26104ad60018055565b5050565b6104b96109d7565b6104c25f610a8c565b565b6104cc6109d7565b6104d4610a03565b5f81116105115760405162461bcd60e51b815260206004820152600b60248201526a616d6f756e742d7a65726f60a81b604482015260640161032b565b6105466001600160a01b037f000000000000000000000000000000000000000000000000000000000000000016333084610adb565b5f8281526003602052604081208054839290610563908490610cb1565b925050819055508060055f82825461057b9190610cb1565b9091555050604051818152829033907fe8611d01f945d503d5ef4f40ea7136efa00457cdbbd85ef108b3d5046dd47d7e9060200160405180910390a36104ad60018055565b6001600160a01b0382165f90815260046020908152604080832084845290915290205460ff165b92915050565b6105f56109d7565b6105fd610a03565b6001600160a01b0383166106435760405162461bcd60e51b815260206004820152600d60248201526c656d706c6f7965652d7a65726f60981b604482015260640161032b565b6001600160a01b0383165f90815260046020908152604080832085845290915290205460ff16156106a55760405162461bcd60e51b815260206004820152600c60248201526b185b1c9958591e4b5c185a5960a21b604482015260640161032b565b600254604051637dec149f60e11b81526001600160a01b038581166004830152602482018590525f92839291169063fbd8293e906044015f60405180830381865afa1580156106f6573d5f5f3e3d5ffd5b505050506040513d5f823e601f3d908101601f1916820160405261071d9190810190610cd8565b915091508181906107415760405162461bcd60e51b815260040161032b9190610da3565b505f8481526003602052604090205483111561079f5760405162461bcd60e51b815260206004820152601960248201527f696e73756666696369656e742d706572696f642d66756e647300000000000000604482015260640161032b565b6001600160a01b0385165f9081526004602090815260408083208784528252808320805460ff191660011790556003909152812080548592906107e3908490610c9e565b90915550506040805184815242602082015285916001600160a01b038816917f03020dca886d59388cb83e30122c27f769c0bfaf28688b31ba8d9fc577448d14910160405180910390a36002546040516322fd5b9f60e01b81526001600160a01b03878116600483015260248201879052426044830152909116906322fd5b9f906064015f604051808303815f87803b15801561087e575f5ffd5b505af192505050801561088f575060015b50505061089b60018055565b505050565b6108a86109d7565b6108b0610a03565b6001600160a01b0382166108f05760405162461bcd60e51b8152602060048201526007602482015266746f2d7a65726f60c81b604482015260640161032b565b6109046001600160a01b0384168383610a2d565b61089b60018055565b6040516370a0823160e01b81523060048201525f907f00000000000000000000000000000000000000000000000000000000000000006001600160a01b0316906370a0823190602401602060405180830381865afa158015610971573d5f5f3e3d5ffd5b505050506040513d601f19601f820116820180604052508101906109959190610dd8565b905090565b6109a26109d7565b6001600160a01b0381166109cb57604051631e4fbdf760e01b81525f600482015260240161032b565b6109d481610a8c565b50565b5f546001600160a01b031633146104c25760405163118cdaa760e01b815233600482015260240161032b565b600260015403610a2657604051633ee5aeb560e01b815260040160405180910390fd5b6002600155565b6040516001600160a01b0383811660248301526044820183905261089b91859182169063a9059cbb906064015b604051602081830303815290604052915060e01b6020820180516001600160e01b038381831617835250505050610b1a565b5f80546001600160a01b038381166001600160a01b0319831681178455604051919092169283917f8be0079c531659141344cd1fd0a4f28419497f9722a3daafe3b4186f6b6457e09190a35050565b6040516001600160a01b038481166024830152838116604483015260648201839052610b149186918216906323b872dd90608401610a5a565b50505050565b5f5f60205f8451602086015f885af180610b39576040513d5f823e3d81fd5b50505f513d91508115610b50578060011415610b5d565b6001600160a01b0384163b155b15610b1457604051635274afe760e01b81526001600160a01b038516600482015260240161032b565b80356001600160a01b0381168114610b9c575f5ffd5b919050565b5f5f60408385031215610bb2575f5ffd5b610bbb83610b86565b946020939093013593505050565b5f60208284031215610bd9575f5ffd5b610be282610b86565b9392505050565b5f60208284031215610bf9575f5ffd5b5035919050565b5f5f60408385031215610c11575f5ffd5b50508035926020909101359150565b5f5f5f60608486031215610c32575f5ffd5b610c3b84610b86565b95602085013595506040909401359392505050565b5f5f5f60608486031215610c62575f5ffd5b610c6b84610b86565b9250610c7960208501610b86565b929592945050506040919091013590565b634e487b7160e01b5f52601160045260245ffd5b818103818111156105e7576105e7610c8a565b808201808211156105e7576105e7610c8a565b634e487b7160e01b5f52604160045260245ffd5b5f5f60408385031215610ce9575f5ffd5b82518015158114610cf8575f5ffd5b602084015190925067ffffffffffffffff811115610d14575f5ffd5b8301601f81018513610d24575f5ffd5b805167ffffffffffffffff811115610d3e57610d3e610cc4565b604051601f8201601f19908116603f0116810167ffffffffffffffff81118282101715610d6d57610d6d610cc4565b604052818152828201602001871015610d84575f5ffd5b8160208401602083015e5f602083830101528093505050509250929050565b602081525f82518060208401528060208501604085015e5f604082850101526040601f19601f83011684010191505092915050565b5f60208284031215610de8575f5ffd5b505191905056fea2646970667358221220d03c567b25b6b48d93bc77a9cd2d81740c2e9df797130be027ff72ae646a688d64736f6c634300081c0033",
  "linkReferences": {},
  "deployedLinkReferences": {},
  "immutableReferences": {
    "929": [
      {
        "length": 32,
        "start": 651
      },
      {
        "length": 32,
        "start": 1082
      },
      {
        "length": 32,
        "start": 1310
      },
      {
        "length": 32,
        "start": 2340
      }
    ]
  },
  "inputSourceName": "project/contracts/PayrollVault.sol",
  "buildInfoId": "solc-0_8_28-d32bfd42178ebe3a9a540b7bd25f28929b8a94c2"
}