{
  "_format": "hh3-artifact-1",
  "contractName": "SalarySchedule",
  "sourceName": "contracts/SalarySchedule.sol",
  "abi": [
    {
      "inputs": [
        {
          "internalType": "address",
          "name": "_token",
          "type": "address"
        }
      ],
      "stateMutability": "nonpayable",
      "type": "constructor"
    },
    {
      "inputs": [
        {
          "internalType": "address",
          "name": "owner",
          "type": "address"
        }
      ],
      "name": "OwnableInvalidOwner",
      "type": "error"
    },
    {
      "inputs": [
        {
          "internalType": "address",
          "name": "account",
          "type": "address"
        }
      ],
      "name": "OwnableUnauthorizedAccount",
      "type": "error"
    },
    {
      "inputs": [],
      "name": "ReentrancyGuardReentrantCall",
      "type": "error"
    },
    {
      "anonymous": false,
      "inputs": [
        {
          "indexed": true,
          "internalType": "address",
          "name": "employee",
          "type": "address"
        },
        {
          "indexed": false,
          "internalType": "uint256",
          "name": "salary",
          "type": "uint256"
        },
        {
          "indexed": false,
          "internalType": "enum SalarySchedule.Cadence",
          "name": "cadence",
          "type": "uint8"
        }
      ],
      "name": "EmployeeAssigned",
      "type": "event"
    },
    {
      "anonymous": false,
      "inputs": [
        {
          "indexed": true,
          "internalType": "address",
          "name": "employee",
          "type": "address"
        }
      ],
      "name": "EmployeeRemoved",
      "type": "event"
    },
    {
      "anonymous": false,
      "inputs": [
        {
          "indexed": true,
          "internalType": "address",
          "name": "employee",
          "type": "address"
        },
        {
          "indexed": false,
          "internalType": "uint256",
          "name": "oldSalary",
          "type": "uint256"
        },
        {
          "indexed": false,
          "internalType": "uint256",
          "name": "newSalary",
          "type": "uint256"
        },
        {
          "indexed": false,
          "internalType": "enum SalarySchedule.Cadence",
          "name": "oldCadence",
          "type": "uint8"
        },
        {
          "indexed": false,
          "internalType": "enum SalarySchedule.Cadence",
          "name": "newCadence",
          "type": "uint8"
        }
      ],
      "name": "EmployeeUpdated",
      "type": "event"
    },
    {
      "anonymous": false,
      "inputs": [
        {
          "indexed": true,
          "internalType": "address",
          "name": "previousOwner",
          "type": "address"
        },
        {
          "indexed": true,
          "internalType": "address",
          "name": "newOwner",
          "type": "address"
        }
      ],
      "name": "OwnershipTransferred",
      "type": "event"
    },
    {
      "anonymous": false,
      "inputs": [
        {
          "indexed": true,
          "internalType": "address",
          "name": "newVault",
          "type": "address"
        }
      ],
      "name": "PayrollVaultUpdated",
      "type": "event"
    },
    {
      "anonymous": false,
      "inputs": [
        {
          "indexed": true,
          "internalType": "address",
          "name": "employee",
          "type": "address"
        },
        {
          "indexed": false,
          "internalType": "uint256",
          "name": "periodId",
          "type": "uint256"
        }
      ],
      "name": "PeriodProcessed",
      "type": "event"
    },
    {
      "anonymous": false,
      "inputs": [
        {
          "indexed": true,
          "internalType": "address",
          "name": "employee",
          "type": "address"
        },
        {
          "indexed": false,
          "internalType": "uint256",
          "name": "amount",
          "type": "uint256"
        },
        {
          "indexed": false,
          "internalType": "address",
          "name": "token",
          "type": "address"
        },
        {
          "indexed": false,
          "internalType": "uint256",
          "name": "periodId",
          "type": "uint256"
        }
      ],
      "name": "SalaryDue",
      "type": "event"
    },
    {
      "inputs": [],
      "name": "BIWEEK",
      "outputs": [
        {
          "internalType": "uint256",
          "name": "",
          "type": "uint256"
        }
      ],
      "stateMutability": "view",
      "type": "function"
    },
    {
      "inputs": [],
      "name": "DAY",
      "outputs": [
        {
          "internalType": "uint256",
          "name": "",
          "type": "uint256"
        }
      ],
      "stateMutability": "view",
      "type": "function"
    },
    {
      "inputs": [],
      "name": "HOUR",
      "outputs": [
        {
          "internalType": "uint256",
          "name": "",
          "type": "uint256"
        }
      ],
      "stateMutability": "view",
      "type": "function"
    },
    {
      "inputs": [],
      "name": "THIRTY_DAY",
      "outputs": [
        {
          "internalType": "uint256",
          "name": "",
          "type": "uint256"
        }
      ],
      "stateMutability": "view",
      "type": "function"
    },
    {
      "inputs": [
        {
          "internalType": "address",
          "name": "_employee",
          "type": "address"
        },
        {
          "internalType": "uint256",
          "name": "periodId",
          "type": "uint256"
        }
      ],
      "name": "adminClearProcessed",
      "outputs": [],
      "stateMutability": "nonpayable",
      "type": "function"
    },
    {
      "inputs": [
        {
          "internalType": "address",
          "name": "_employee",
          "type": "address"
        },
        {
          "internalType": "uint256",
          "name": "periodId",
          "type": "uint256"
        }
      ],
      "name": "adminEmitSalaryDue",
      "outputs": [],
      "stateMutability": "nonpayable",
      "type": "function"
    },
    {
      "inputs": [
        {
          "internalType": "address",
          "name": "_employee",
          "type": "address"
        },
        {
          "internalType": "uint256",
          "name": "_salary",
          "type": "uint256"
        },
        {
          "internalType": "enum SalarySchedule.Cadence",
          "name": "_cadence",
          "type": "uint8"
        },
        {
          "internalType": "uint256",
          "name": "_initialLastPaid",
          "type": "uint256"
        }
      ],
      "name": "assignEmployee",
      "outputs": [],
      "stateMutability": "nonpayable",
      "type": "function"
    },
    {
      "inputs": [
        {
          "internalType": "enum SalarySchedule.Cadence",
          "name": "c",
          "type": "uint8"
        }
      ],
      "name": "cadenceDuration",
      "outputs": [
        {
          "internalType": "uint256",
          "name": "",
          "type": "uint256"
        }
      ],
      "stateMutability": "pure",
      "type": "function"
    },
    {
      "inputs": [
        {
          "internalType": "address",
          "name": "_employee",
          "type": "address"
        },
        {
          "internalType": "uint256",
          "name": "periodId",
          "type": "uint256"
        },
        {
          "internalType": "uint256",
          "name": "paidTimestamp",
          "type": "uint256"
        }
      ],
      "name": "confirmPaid",
      "outputs": [],
      "stateMutability": "nonpayable",
      "type": "function"
    },
    {
      "inputs": [
        {
          "internalType": "address",
          "name": "",
          "type": "address"
        }
      ],
      "name": "employees",
      "outputs": [
        {
          "internalType": "uint256",
          "name": "salary",
          "type": "uint256"
        },
        {
          "internalType": "enum SalarySchedule.Cadence",
          "name": "cadence",
          "type": "uint8"
        },
        {
          "internalType": "uint256",
          "name": "lastPaidTimestamp",
          "type": "uint256"
        },
        {
          "internalType": "bool",
          "name": "exists",
          "type": "bool"
        }
      ],
      "stateMutability": "view",
      "type": "function"
    },
    {
      "inputs": [
        {
          "internalType": "address",
          "name": "_employee",
          "type": "address"
        }
      ],
      "name": "getEmployee",
      "outputs": [
        {
          "internalType": "uint256",
          "name": "salary",
          "type": "uint256"
        },
        {
          "internalType": "enum SalarySchedule.Cadence",
          "name": "cadence",
          "type": "uint8"
        },
        {
          "internalType": "uint256",
          "name": "lastPaid",
          "type": "uint256"
        },
        {
          "internalType": "bool",
          "name": "exists_",
          "type": "bool"
        }
      ],
      "stateMutability": "view",
      "type": "function"
    },
    {
      "inputs": [
        {
          "internalType": "address",
          "name": "_employee",
          "type": "address"
        },
        {
          "internalType": "uint256",
          "name": "periodId",
          "type": "uint256"
        }
      ],
      "name": "isDue",
      "outputs": [
        {
          "internalType": "bool",
          "name": "",
          "type": "bool"
        },
        {
          "internalType": "string",
          "name": "",
          "type": "string"
        }
      ],
      "stateMutability": "view",
      "type": "function"
    },
    {
      "inputs": [
        {
          "internalType": "enum SalarySchedule.Cadence",
          "name": "c",
          "type": "uint8"
        },
        {
          "internalType": "uint256",
          "name": "periodId",
          "type": "uint256"
        }
      ],
      "name": "isPeriodAligned",
      "outputs": [
        {
          "internalType": "bool",
          "name": "",
          "type": "bool"
        }
      ],
      "stateMutability": "pure",
      "type": "function"
    },
    {
      "inputs": [
        {
          "internalType": "address",
          "name": "_employee",
          "type": "address"
        }
      ],
      "name": "nextExpectedPeriod",
      "outputs": [
        {
          "internalType": "uint256",
          "name": "",
          "type": "uint256"
        }
      ],
      "stateMutability": "view",
      "type": "function"
    },
    {
      "inputs": [],
      "name": "owner",
      "outputs": [
        {
          "internalType": "address",
          "name": "",
          "type": "address"
        }
      ],
      "stateMutability": "view",
      "type": "function"
    },
    {
      "inputs": [],
      "name": "payrollVault",
      "outputs": [
        {
          "internalType": "address",
          "name": "",
          "type": "address"
        }
      ],
      "stateMutability": "view",
      "type": "function"
    },
    {
      "inputs": [
        {
          "internalType": "address",
          "name": "",
          "type": "address"
        },
        {
          "internalType": "uint256",
          "name": "",
          "type": "uint256"
        }
      ],
      "name": "periodProcessed",
      "outputs": [
        {
          "internalType": "bool",
          "name": "",
          "type": "bool"
        }
      ],
      "stateMutability": "view",
      "type": "function"
    },
    {
      "inputs": [
        {
          "internalType": "address",
          "name": "_employee",
          "type": "address"
        }
      ],
      "name": "removeEmployee",
      "outputs": [],
      "stateMutability": "nonpayable",
      "type": "function"
    },
    {
      "inputs": [],
      "name": "renounceOwnership",
      "outputs": [],
      "stateMutability": "nonpayable",
      "type": "function"
    },
    {
      "inputs": [
        {
          "internalType": "address",
          "name": "_employee",
          "type": "address"
        },
        {
          "internalType": "uint256",
          "name": "_ts",
          "type": "uint256"
        }
      ],
      "name": "setLastPaidTimestamp",
      "outputs": [],
      "stateMutability": "nonpayable",
      "type": "function"
    },
    {
      "inputs": [
        {
          "internalType": "address",
          "name": "_vault",
          "type": "address"
        }
      ],
      "name": "setPayrollVault",
      "outputs": [],
      "stateMutability": "nonpayable",
      "type": "function"
    },
    {
      "inputs": [],
      "name": "token",
      "outputs": [
        {
          "internalType": "address",
          "name": "",
          "type": "address"
        }
      ],
      "stateMutability": "view",
      "type": "function"
    },
    {
      "inputs": [
        {
          "internalType": "address",
          "name": "newOwner",
          "type": "address"
        }
      ],
      "name": "transferOwnership",
      "outputs": [],
      "stateMutability": "nonpayable",
      "type": "function"
    },
    {
      "inputs": [
        {
          "internalType": "address",
          "name": "_employee",
          "type": "address"
        },
        {
          "internalType": "uint256",
          "name": "periodId",
          "type": "uint256"
        }
      ],
      "name": "triggerSalaryDue",
      "outputs": [],
      "stateMutability": "nonpayable",
      "type": "function"
    }
  ],
  "bytecode": "0x60a060405234801561000f575f5ffd5b506040516114d03803806114d083398101604081905261002e91610105565b338061005457604051631e4fbdf760e01b81525f60048201526024015b60405180910390fd5b61005d816100b6565b50600180556001600160a01b0381166100a55760405162461bcd60e51b815260206004820152600a602482015269746f6b656e2d7a65726f60b01b604482015260640161004b565b6001600160a01b0316608052610132565b5f80546001600160a01b038381166001600160a01b0319831681178455604051919092169283917f8be0079c531659141344cd1fd0a4f28419497f9722a3daafe3b4186f6b6457e09190a35050565b5f60208284031215610115575f5ffd5b81516001600160a01b038116811461012b575f5ffd5b9392505050565b6080516113786101585f395f8181610374015281816106870152610b6301526113785ff3fe608060405234801561000f575f5ffd5b5060043610610153575f3560e01c8063bab848aa116100bf578063da6ee9a411610079578063da6ee9a41461030d578063dc29317614610315578063f0af3cd714610328578063f2fde38b1461033b578063fbd8293e1461034e578063fc0c546a1461036f575f5ffd5b8063bab848aa1461027d578063c1d0450d14610290578063d0678947146102a3578063d108177a146102df578063d2f4cb63146102f2578063d9f4e844146102fa575f5ffd5b8063715018a611610110578063715018a6146101f55780638da5cb5b146101fd578063a1f042c914610221578063a39dc9be14610234578063a48b83c31461023d578063b18c0bb61461026a575f5ffd5b8063075594091461015757806313f8ccec1461016c57806322fd5b9f1461017f57806327cfe856146101925780632d665d05146101af57806332648e09146101d2575b5f5ffd5b61016a6101653660046110bb565b610396565b005b61016a61017a3660046110fc565b6105cc565b61016a61018d366004611124565b61076f565b61019c6201518081565b6040519081526020015b60405180910390f35b6101c26101bd366004611154565b610895565b60405190151581526020016101a6565b6101e56101e036600461116e565b6108b7565b6040516101a694939291906111c2565b61016a610959565b5f546001600160a01b03165b6040516001600160a01b0390911681526020016101a6565b61019c61022f36600461116e565b61096c565b61019c610e1081565b6101c261024b3660046110fc565b600460209081525f928352604080842090915290825290205460ff1681565b61016a6102783660046110fc565b610a70565b61016a61028b3660046110fc565b610bb1565b61016a61029e36600461116e565b610be5565b6101e56102b136600461116e565b600360208190525f91825260409091208054600182015460028301549290930154909260ff90811692911684565b61016a6102ed36600461116e565b610c79565b61019c610d21565b61019c6103083660046111ed565b610d32565b61019c610d89565b61016a6103233660046110fc565b610d97565b600254610209906001600160a01b031681565b61016a61034936600461116e565b610df8565b61036161035c3660046110fc565b610e35565b6040516101a6929190611234565b6102097f000000000000000000000000000000000000000000000000000000000000000081565b61039e610fed565b6001600160a01b0384166103e95760405162461bcd60e51b815260206004820152600d60248201526c656d706c6f7965652d7a65726f60981b60448201526064015b60405180910390fd5b5f83116104265760405162461bcd60e51b815260206004820152600b60248201526a73616c6172792d7a65726f60a81b60448201526064016103e0565b6001600160a01b0384165f908152600360208190526040909120015460ff1661053457604051806080016040528084815260200183600281111561046c5761046c61118e565b81526020808201849052600160409283018190526001600160a01b0388165f90815260038352929092208351815590830151818301805492939192909160ff19909116908360028111156104c2576104c261118e565b021790555060408281015160028301556060909201516003909101805460ff1916911515919091179055516001600160a01b038516907f35e2bb22915e00b64acd99be5fcfe524e19ed77803fb46326a1c309b6122a4e3906105279086908690611256565b60405180910390a26105c6565b6001600160a01b0384165f90815260036020526040902080546001808301805487855560ff81169287929160ff1916908360028111156105765761057661118e565b0217905550866001600160a01b03167f16fc3e817e935f05bd4202e055ef9d09ff75449309929a18572e199121b9dec0838884896040516105ba949392919061126a565b60405180910390a25050505b50505050565b6105d4611019565b6105dc610fed565b5f5f6105e88484610e35565b9150915081819061060c5760405162461bcd60e51b81526004016103e09190611292565b506001600160a01b0384165f81815260036020908152604080832060048352818420888552835292819020805460ff19166001179055518681529192917fba389f36d95281fd4b4fa66372b260ec6798473ce3f93cadcd035155ca79acc2910160405180910390a28054604080519182526001600160a01b037f0000000000000000000000000000000000000000000000000000000000000000811660208401529082018690528616907f1b828142e2c933c3ad65bb25c1f6b6f4397fd350524a1d628d8dbb22e0d8a6a19060600160405180910390a26002546001600160a01b03161561075f576002548154604051638ebb064560e01b81526001600160a01b038881166004830152602482019290925260448101879052911690638ebb0645906064015f604051808303815f87803b158015610748575f5ffd5b505af115801561075a573d5f5f3e3d5ffd5b505050505b50505061076b60018055565b5050565b610777610fed565b6001600160a01b0383165f908152600360208190526040909120015460ff166107b25760405162461bcd60e51b81526004016103e0906112a4565b6001600160a01b0383165f90815260046020908152604080832085845290915290205460ff1661081b5760405162461bcd60e51b81526020600482015260146024820152731c195c9a5bd90b5b9bdd0b5c1c9bd8d95cdcd95960621b60448201526064016103e0565b6001600160a01b0383165f9081526003602052604090206002015481116108735760405162461bcd60e51b815260206004820152600c60248201526b3a3996b737ba16b630ba32b960a11b60448201526064016103e0565b6001600160a01b039092165f9081526003602052604090206002019190915550565b5f5f6108a084610d32565b90506108ac81846112de565b159150505b92915050565b6001600160a01b0381165f9081526003602090815260408083208151608081019092528054825260018101548493849384938493919290919083019060ff1660028111156109075761090761118e565b60028111156109185761091861118e565b8152600282015460208083019190915260039092015460ff161515604091820152825191830151908301516060909301519199909850919650945092505050565b610961610fed565b61096a5f611043565b565b6001600160a01b0381165f908152600360209081526040808320815160808101909252805482526001810154849383019060ff1660028111156109b1576109b161118e565b60028111156109c2576109c261118e565b81526002820154602082015260039091015460ff1615156040909101526060810151909150610a035760405162461bcd60e51b81526004016103e0906112a4565b5f610a118260200151610d32565b905081604001515f03610a3d575f81610a2a8142611305565b610a349190611318565b95945050505050565b5f818360400151610a4e919061132f565b90505f82610a5c8184611305565b610a669190611318565b9695505050505050565b610a78610fed565b6001600160a01b0382165f908152600360208190526040909120015460ff16610ab35760405162461bcd60e51b81526004016103e0906112a4565b6001600160a01b0382165f908152600360209081526040808320815160808101909252805482526001810154919290919083019060ff166002811115610afb57610afb61118e565b6002811115610b0c57610b0c61118e565b81526002820154602082015260039091015460ff161515604091820152815190519192506001600160a01b038516917f1b828142e2c933c3ad65bb25c1f6b6f4397fd350524a1d628d8dbb22e0d8a6a191610ba4917f00000000000000000000000000000000000000000000000000000000000000009087909283526001600160a01b03919091166020830152604082015260600190565b60405180910390a2505050565b610bb9610fed565b6001600160a01b039091165f90815260046020908152604080832093835292905220805460ff19169055565b610bed610fed565b6001600160a01b038116610c305760405162461bcd60e51b815260206004820152600a6024820152697661756c742d7a65726f60b01b60448201526064016103e0565b600280546001600160a01b0319166001600160a01b0383169081179091556040517f6f43fd14172f3b8bcb6340bc9cec7d3d67ac9e331b9e077881cdc3211d34f365905f90a250565b610c81610fed565b6001600160a01b0381165f908152600360208190526040909120015460ff16610cbc5760405162461bcd60e51b81526004016103e0906112a4565b6001600160a01b0381165f81815260036020819052604080832083815560018101805460ff199081169091556002820185905592018054909216909155517fabae6e64cb4315875c29d42347a312f5e9fce4ab564e9722b43dd78d0751135a9190a250565b610d2f62015180601e611318565b81565b5f80826002811115610d4657610d4661118e565b03610d545750610e10919050565b6001826002811115610d6857610d6861118e565b03610d7b576108b162015180600e611318565b6108b162015180601e611318565b610d2f62015180600e611318565b610d9f610fed565b6001600160a01b0382165f908152600360208190526040909120015460ff16610dda5760405162461bcd60e51b81526004016103e0906112a4565b6001600160a01b039091165f90815260036020526040902060020155565b610e00610fed565b6001600160a01b038116610e2957604051631e4fbdf760e01b81525f60048201526024016103e0565b610e3281611043565b50565b6001600160a01b0382165f908152600360209081526040808320815160808101909252805482526001810154606093859392919083019060ff166002811115610e8057610e8061118e565b6002811115610e9157610e9161118e565b81526002820154602082015260039091015460ff1615156040909101526060810151909150610ee757505060408051808201909152600c81526b1b9bdd0b585cdcda59db995960a21b60208201525f9150610fe6565b610ef5816020015185610895565b610f2b5750506040805180820190915260118152701c195c9a5bd90b5b5a5cd85b1a59db9959607a1b60208201525f9150610fe6565b6001600160a01b0385165f90815260046020908152604080832087845290915290205460ff1615610f88575050604080518082019091526011815270185b1c9958591e4b5c1c9bd8d95cdcd959607a1b60208201525f9150610fe6565b80604001518411610fd157505060408051808201909152601f81527f706572696f642d6e6f742d6c617465722d7468616e2d6c6173742d706169640060208201525f9150610fe6565b505060408051602081019091525f8152600191505b9250929050565b5f546001600160a01b0316331461096a5760405163118cdaa760e01b81523360048201526024016103e0565b60026001540361103c57604051633ee5aeb560e01b815260040160405180910390fd5b6002600155565b5f80546001600160a01b038381166001600160a01b0319831681178455604051919092169283917f8be0079c531659141344cd1fd0a4f28419497f9722a3daafe3b4186f6b6457e09190a35050565b80356001600160a01b03811681146110a8575f5ffd5b919050565b8035600381106110a8575f5ffd5b5f5f5f5f608085870312156110ce575f5ffd5b6110d785611092565b9350602085013592506110ec604086016110ad565b9396929550929360600135925050565b5f5f6040838503121561110d575f5ffd5b61111683611092565b946020939093013593505050565b5f5f5f60608486031215611136575f5ffd5b61113f84611092565b95602085013595506040909401359392505050565b5f5f60408385031215611165575f5ffd5b611116836110ad565b5f6020828403121561117e575f5ffd5b61118782611092565b9392505050565b634e487b7160e01b5f52602160045260245ffd5b600381106111be57634e487b7160e01b5f52602160045260245ffd5b9052565b848152608081016111d660208301866111a2565b836040830152821515606083015295945050505050565b5f602082840312156111fd575f5ffd5b611187826110ad565b5f81518084528060208401602086015e5f602082860101526020601f19601f83011685010191505092915050565b8215158152604060208201525f61124e6040830184611206565b949350505050565b8281526040810161118760208301846111a2565b848152602081018490526080810161128560408301856111a2565b610a3460608301846111a2565b602081525f6111876020830184611206565b6020808252600c908201526b1b9bdd0b585cdcda59db995960a21b604082015260600190565b634e487b7160e01b5f52601260045260245ffd5b5f826112ec576112ec6112ca565b500690565b634e487b7160e01b5f52601160045260245ffd5b5f82611313576113136112ca565b500490565b80820281158282048414176108b1576108b16112f1565b808201808211156108b1576108b16112f156fea2646970667358221220676020b43b295258f99b15e172462a6f16c312369781945a924c721c91c583c464736f6c634300081c0033",
  "linkReferences": {},
  "deployedLinkReferences": {},
  "immutableReferences": {
    "299": [
      {
        "length": 32,
        "start": 884
      },
      {
        "length": 32,
        "start": 1671
      },
      {
        "length": 32,
        "start": 2915
      }
    ]
  },
  "inputSourceName": "project/contracts/SalarySchedule.sol",
  "buildInfoId": "solc-0_8_28-683b574205ff347b4ffd0f383cbed9411f2f2627"
}