{
  "_format": "hh3-artifact-1",
  "contractName": "SalarySchedule",
  "sourceName": "contracts/SalarySchedule.sol",
  "abi": [
    {
      "inputs": [
        {
          "internalType": "address",
          "name": "_token",
          "type": "address"
        }
      ],
      "stateMutability": "nonpayable",
      "type": "constructor"
    },
    {
      "inputs": [
        {
          "internalType": "address",
          "name": "owner",
          "type": "address"
        }
      ],
      "name": "OwnableInvalidOwner",
      "type": "error"
    },
    {
      "inputs": [
        {
          "internalType": "address",
          "name": "account",
          "type": "address"
        }
      ],
      "name": "OwnableUnauthorizedAccount",
      "type": "error"
    },
    {
      "inputs": [],
      "name": "ReentrancyGuardReentrantCall",
      "type": "error"
    },
    {
      "anonymous": false,
      "inputs": [
        {
          "indexed": true,
          "internalType": "address",
          "name": "employee",
          "type": "address"
        },
        {
          "indexed": false,
          "internalType": "uint256",
          "name": "salary",
          "type": "uint256"
        },
        {
          "indexed": false,
          "internalType": "enum SalarySchedule.Cadence",
          "name": "cadence",
          "type": "uint8"
        }
      ],
      "name": "EmployeeAssigned",
      "type": "event"
    },
    {
      "anonymous": false,
      "inputs": [
        {
          "indexed": true,
          "internalType": "address",
          "name": "employee",
          "type": "address"
        }
      ],
      "name": "EmployeeRemoved",
      "type": "event"
    },
    {
      "anonymous": false,
      "inputs": [
        {
          "indexed": true,
          "internalType": "address",
          "name": "employee",
          "type": "address"
        },
        {
          "indexed": false,
          "internalType": "uint256",
          "name": "oldSalary",
          "type": "uint256"
        },
        {
          "indexed": false,
          "internalType": "uint256",
          "name": "newSalary",
          "type": "uint256"
        },
        {
          "indexed": false,
          "internalType": "enum SalarySchedule.Cadence",
          "name": "oldCadence",
          "type": "uint8"
        },
        {
          "indexed": false,
          "internalType": "enum SalarySchedule.Cadence",
          "name": "newCadence",
          "type": "uint8"
        }
      ],
      "name": "EmployeeUpdated",
      "type": "event"
    },
    {
      "anonymous": false,
      "inputs": [
        {
          "indexed": true,
          "internalType": "address",
          "name": "previousOwner",
          "type": "address"
        },
        {
          "indexed": true,
          "internalType": "address",
          "name": "newOwner",
          "type": "address"
        }
      ],
      "name": "OwnershipTransferred",
      "type": "event"
    },
    {
      "anonymous": false,
      "inputs": [
        {
          "indexed": true,
          "internalType": "address",
          "name": "newVault",
          "type": "address"
        }
      ],
      "name": "PayrollVaultUpdated",
      "type": "event"
    },
    {
      "anonymous": false,
      "inputs": [
        {
          "indexed": true,
          "internalType": "address",
          "name": "employee",
          "type": "address"
        },
        {
          "indexed": false,
          "internalType": "uint256",
          "name": "periodId",
          "type": "uint256"
        }
      ],
      "name": "PeriodProcessed",
      "type": "event"
    },
    {
      "anonymous": false,
      "inputs": [
        {
          "indexed": true,
          "internalType": "address",
          "name": "employee",
          "type": "address"
        },
        {
          "indexed": false,
          "internalType": "uint256",
          "name": "amount",
          "type": "uint256"
        },
        {
          "indexed": false,
          "internalType": "address",
          "name": "token",
          "type": "address"
        },
        {
          "indexed": false,
          "internalType": "uint256",
          "name": "periodId",
          "type": "uint256"
        }
      ],
      "name": "SalaryDue",
      "type": "event"
    },
    {
      "inputs": [],
      "name": "BIWEEK",
      "outputs": [
        {
          "internalType": "uint256",
          "name": "",
          "type": "uint256"
        }
      ],
      "stateMutability": "view",
      "type": "function"
    },
    {
      "inputs": [],
      "name": "DAY",
      "outputs": [
        {
          "internalType": "uint256",
          "name": "",
          "type": "uint256"
        }
      ],
      "stateMutability": "view",
      "type": "function"
    },
    {
      "inputs": [],
      "name": "HOUR",
      "outputs": [
        {
          "internalType": "uint256",
          "name": "",
          "type": "uint256"
        }
      ],
      "stateMutability": "view",
      "type": "function"
    },
    {
      "inputs": [],
      "name": "MINUTE",
      "outputs": [
        {
          "internalType": "uint256",
          "name": "",
          "type": "uint256"
        }
      ],
      "stateMutability": "view",
      "type": "function"
    },
    {
      "inputs": [],
      "name": "THIRTY_DAY",
      "outputs": [
        {
          "internalType": "uint256",
          "name": "",
          "type": "uint256"
        }
      ],
      "stateMutability": "view",
      "type": "function"
    },
    {
      "inputs": [
        {
          "internalType": "address",
          "name": "_employee",
          "type": "address"
        },
        {
          "internalType": "uint256",
          "name": "periodId",
          "type": "uint256"
        }
      ],
      "name": "adminClearProcessed",
      "outputs": [],
      "stateMutability": "nonpayable",
      "type": "function"
    },
    {
      "inputs": [
        {
          "internalType": "address",
          "name": "_employee",
          "type": "address"
        },
        {
          "internalType": "uint256",
          "name": "periodId",
          "type": "uint256"
        }
      ],
      "name": "adminEmitSalaryDue",
      "outputs": [],
      "stateMutability": "nonpayable",
      "type": "function"
    },
    {
      "inputs": [
        {
          "internalType": "address",
          "name": "_employee",
          "type": "address"
        },
        {
          "internalType": "uint256",
          "name": "_salary",
          "type": "uint256"
        },
        {
          "internalType": "enum SalarySchedule.Cadence",
          "name": "_cadence",
          "type": "uint8"
        },
        {
          "internalType": "uint256",
          "name": "_initialLastPaid",
          "type": "uint256"
        }
      ],
      "name": "assignEmployee",
      "outputs": [],
      "stateMutability": "nonpayable",
      "type": "function"
    },
    {
      "inputs": [
        {
          "internalType": "enum SalarySchedule.Cadence",
          "name": "c",
          "type": "uint8"
        }
      ],
      "name": "cadenceDuration",
      "outputs": [
        {
          "internalType": "uint256",
          "name": "",
          "type": "uint256"
        }
      ],
      "stateMutability": "pure",
      "type": "function"
    },
    {
      "inputs": [
        {
          "internalType": "address",
          "name": "_employee",
          "type": "address"
        },
        {
          "internalType": "uint256",
          "name": "periodId",
          "type": "uint256"
        },
        {
          "internalType": "uint256",
          "name": "paidTimestamp",
          "type": "uint256"
        }
      ],
      "name": "confirmPaid",
      "outputs": [],
      "stateMutability": "nonpayable",
      "type": "function"
    },
    {
      "inputs": [
        {
          "internalType": "address",
          "name": "",
          "type": "address"
        }
      ],
      "name": "employees",
      "outputs": [
        {
          "internalType": "uint256",
          "name": "salary",
          "type": "uint256"
        },
        {
          "internalType": "enum SalarySchedule.Cadence",
          "name": "cadence",
          "type": "uint8"
        },
        {
          "internalType": "uint256",
          "name": "lastPaidTimestamp",
          "type": "uint256"
        },
        {
          "internalType": "bool",
          "name": "exists",
          "type": "bool"
        }
      ],
      "stateMutability": "view",
      "type": "function"
    },
    {
      "inputs": [
        {
          "internalType": "address",
          "name": "_employee",
          "type": "address"
        }
      ],
      "name": "getEmployee",
      "outputs": [
        {
          "internalType": "uint256",
          "name": "salary",
          "type": "uint256"
        },
        {
          "internalType": "enum SalarySchedule.Cadence",
          "name": "cadence",
          "type": "uint8"
        },
        {
          "internalType": "uint256",
          "name": "lastPaid",
          "type": "uint256"
        },
        {
          "internalType": "bool",
          "name": "exists_",
          "type": "bool"
        }
      ],
      "stateMutability": "view",
      "type": "function"
    },
    {
      "inputs": [
        {
          "internalType": "address",
          "name": "_employee",
          "type": "address"
        },
        {
          "internalType": "uint256",
          "name": "periodId",
          "type": "uint256"
        }
      ],
      "name": "isDue",
      "outputs": [
        {
          "internalType": "bool",
          "name": "",
          "type": "bool"
        },
        {
          "internalType": "string",
          "name": "",
          "type": "string"
        }
      ],
      "stateMutability": "view",
      "type": "function"
    },
    {
      "inputs": [
        {
          "internalType": "enum SalarySchedule.Cadence",
          "name": "c",
          "type": "uint8"
        },
        {
          "internalType": "uint256",
          "name": "periodId",
          "type": "uint256"
        }
      ],
      "name": "isPeriodAligned",
      "outputs": [
        {
          "internalType": "bool",
          "name": "",
          "type": "bool"
        }
      ],
      "stateMutability": "pure",
      "type": "function"
    },
    {
      "inputs": [
        {
          "internalType": "address",
          "name": "_employee",
          "type": "address"
        }
      ],
      "name": "nextExpectedPeriod",
      "outputs": [
        {
          "internalType": "uint256",
          "name": "",
          "type": "uint256"
        }
      ],
      "stateMutability": "view",
      "type": "function"
    },
    {
      "inputs": [],
      "name": "owner",
      "outputs": [
        {
          "internalType": "address",
          "name": "",
          "type": "address"
        }
      ],
      "stateMutability": "view",
      "type": "function"
    },
    {
      "inputs": [],
      "name": "payrollVault",
      "outputs": [
        {
          "internalType": "address",
          "name": "",
          "type": "address"
        }
      ],
      "stateMutability": "view",
      "type": "function"
    },
    {
      "inputs": [
        {
          "internalType": "address",
          "name": "",
          "type": "address"
        },
        {
          "internalType": "uint256",
          "name": "",
          "type": "uint256"
        }
      ],
      "name": "periodProcessed",
      "outputs": [
        {
          "internalType": "bool",
          "name": "",
          "type": "bool"
        }
      ],
      "stateMutability": "view",
      "type": "function"
    },
    {
      "inputs": [
        {
          "internalType": "address",
          "name": "_employee",
          "type": "address"
        }
      ],
      "name": "removeEmployee",
      "outputs": [],
      "stateMutability": "nonpayable",
      "type": "function"
    },
    {
      "inputs": [],
      "name": "renounceOwnership",
      "outputs": [],
      "stateMutability": "nonpayable",
      "type": "function"
    },
    {
      "inputs": [
        {
          "internalType": "address",
          "name": "_employee",
          "type": "address"
        },
        {
          "internalType": "uint256",
          "name": "_ts",
          "type": "uint256"
        }
      ],
      "name": "setLastPaidTimestamp",
      "outputs": [],
      "stateMutability": "nonpayable",
      "type": "function"
    },
    {
      "inputs": [
        {
          "internalType": "address",
          "name": "_vault",
          "type": "address"
        }
      ],
      "name": "setPayrollVault",
      "outputs": [],
      "stateMutability": "nonpayable",
      "type": "function"
    },
    {
      "inputs": [],
      "name": "token",
      "outputs": [
        {
          "internalType": "address",
          "name": "",
          "type": "address"
        }
      ],
      "stateMutability": "view",
      "type": "function"
    },
    {
      "inputs": [
        {
          "internalType": "address",
          "name": "newOwner",
          "type": "address"
        }
      ],
      "name": "transferOwnership",
      "outputs": [],
      "stateMutability": "nonpayable",
      "type": "function"
    },
    {
      "inputs": [
        {
          "internalType": "address",
          "name": "_employee",
          "type": "address"
        },
        {
          "internalType": "uint256",
          "name": "periodId",
          "type": "uint256"
        }
      ],
      "name": "triggerSalaryDue",
      "outputs": [],
      "stateMutability": "nonpayable",
      "type": "function"
    }
  ],
  "bytecode": "0x60a060405234801561000f575f5ffd5b5060405161151b38038061151b83398101604081905261002e91610105565b338061005457604051631e4fbdf760e01b81525f60048201526024015b60405180910390fd5b61005d816100b6565b50600180556001600160a01b0381166100a55760405162461bcd60e51b815260206004820152600a602482015269746f6b656e2d7a65726f60b01b604482015260640161004b565b6001600160a01b0316608052610132565b5f80546001600160a01b038381166001600160a01b0319831681178455604051919092169283917f8be0079c531659141344cd1fd0a4f28419497f9722a3daafe3b4186f6b6457e09190a35050565b5f60208284031215610115575f5ffd5b81516001600160a01b038116811461012b575f5ffd5b9392505050565b6080516113c36101585f395f8181610396015281816106b00152610b9101526113c35ff3fe608060405234801561000f575f5ffd5b506004361061016d575f3560e01c8063b18c0bb6116100d9578063d9f4e84411610093578063f0af3cd71161006e578063f0af3cd71461034a578063f2fde38b1461035d578063fbd8293e14610370578063fc0c546a14610391575f5ffd5b8063d9f4e8441461031c578063da6ee9a41461032f578063dc29317614610337575f5ffd5b8063b18c0bb61461028c578063bab848aa1461029f578063c1d0450d146102b2578063d0678947146102c5578063d108177a14610301578063d2f4cb6314610314575f5ffd5b806332648e091161012a57806332648e09146101f4578063715018a6146102175780638da5cb5b1461021f578063a1f042c914610243578063a39dc9be14610256578063a48b83c31461025f575f5ffd5b8063075594091461017157806313f8ccec14610186578063198a8f651461019957806322fd5b9f146101b457806327cfe856146101c75780632d665d05146101d1575b5f5ffd5b61018461017f366004611106565b6103b8565b005b610184610194366004611147565b6105f5565b6101a1603c81565b6040519081526020015b60405180910390f35b6101846101c236600461116f565b610798565b6101a16201518081565b6101e46101df36600461119f565b6108be565b60405190151581526020016101ab565b6102076102023660046111b9565b6108e0565b6040516101ab949392919061120d565b610184610983565b5f546001600160a01b03165b6040516001600160a01b0390911681526020016101ab565b6101a16102513660046111b9565b610996565b6101a1610e1081565b6101e461026d366004611147565b600460209081525f928352604080842090915290825290205460ff1681565b61018461029a366004611147565b610aa0565b6101846102ad366004611147565b610bdf565b6101846102c03660046111b9565b610c13565b6102076102d33660046111b9565b600360208190525f91825260409091208054600182015460028301549290930154909260ff90811692911684565b61018461030f3660046111b9565b610ca7565b6101a1610d4f565b6101a161032a366004611238565b610d60565b6101a1610dd8565b610184610345366004611147565b610de6565b60025461022b906001600160a01b031681565b61018461036b3660046111b9565b610e47565b61038361037e366004611147565b610e84565b6040516101ab92919061127f565b61022b7f000000000000000000000000000000000000000000000000000000000000000081565b6103c0611038565b6001600160a01b03841661040b5760405162461bcd60e51b815260206004820152600d60248201526c656d706c6f7965652d7a65726f60981b60448201526064015b60405180910390fd5b5f83116104485760405162461bcd60e51b815260206004820152600b60248201526a73616c6172792d7a65726f60a81b6044820152606401610402565b6001600160a01b0384165f908152600360208190526040909120015460ff1661055557604051806080016040528084815260200183600381111561048e5761048e6111d9565b81526020808201849052600160409283018190526001600160a01b0388165f90815260038084529390208451815591840151828201805493949193909260ff199091169184908111156104e3576104e36111d9565b021790555060408281015160028301556060909201516003909101805460ff1916911515919091179055516001600160a01b038516907f35e2bb22915e00b64acd99be5fcfe524e19ed77803fb46326a1c309b6122a4e39061054890869086906112a1565b60405180910390a26105ef565b6001600160a01b0384165f9081526003602081905260409091208054600180830180548885559394929360ff811693889360ff199092169190849081111561059f5761059f6111d9565b0217905550866001600160a01b03167f16fc3e817e935f05bd4202e055ef9d09ff75449309929a18572e199121b9dec0838884896040516105e394939291906112b5565b60405180910390a25050505b50505050565b6105fd611064565b610605611038565b5f5f6106118484610e84565b915091508181906106355760405162461bcd60e51b815260040161040291906112dd565b506001600160a01b0384165f81815260036020908152604080832060048352818420888552835292819020805460ff19166001179055518681529192917fba389f36d95281fd4b4fa66372b260ec6798473ce3f93cadcd035155ca79acc2910160405180910390a28054604080519182526001600160a01b037f0000000000000000000000000000000000000000000000000000000000000000811660208401529082018690528616907f1b828142e2c933c3ad65bb25c1f6b6f4397fd350524a1d628d8dbb22e0d8a6a19060600160405180910390a26002546001600160a01b031615610788576002548154604051638ebb064560e01b81526001600160a01b038881166004830152602482019290925260448101879052911690638ebb0645906064015f604051808303815f87803b158015610771575f5ffd5b505af1158015610783573d5f5f3e3d5ffd5b505050505b50505061079460018055565b5050565b6107a0611038565b6001600160a01b0383165f908152600360208190526040909120015460ff166107db5760405162461bcd60e51b8152600401610402906112ef565b6001600160a01b0383165f90815260046020908152604080832085845290915290205460ff166108445760405162461bcd60e51b81526020600482015260146024820152731c195c9a5bd90b5b9bdd0b5c1c9bd8d95cdcd95960621b6044820152606401610402565b6001600160a01b0383165f90815260036020526040902060020154811161089c5760405162461bcd60e51b815260206004820152600c60248201526b3a3996b737ba16b630ba32b960a11b6044820152606401610402565b6001600160a01b039092165f9081526003602052604090206002019190915550565b5f5f6108c984610d60565b90506108d58184611329565b159150505b92915050565b6001600160a01b0381165f9081526003602081815260408084208151608081019092528054825260018101548594859485948594909390929184019160ff90911690811115610931576109316111d9565b6003811115610942576109426111d9565b8152600282015460208083019190915260039092015460ff161515604091820152825191830151908301516060909301519199909850919650945092505050565b61098b611038565b6109945f61108e565b565b6001600160a01b0381165f9081526003602081815260408084208151608081019092528054825260018101548594929391929184019160ff909116908111156109e1576109e16111d9565b60038111156109f2576109f26111d9565b81526002820154602082015260039091015460ff1615156040909101526060810151909150610a335760405162461bcd60e51b8152600401610402906112ef565b5f610a418260200151610d60565b905081604001515f03610a6d575f81610a5a8142611350565b610a649190611363565b95945050505050565b5f818360400151610a7e919061137a565b90505f82610a8c8184611350565b610a969190611363565b9695505050505050565b610aa8611038565b6001600160a01b0382165f908152600360208190526040909120015460ff16610ae35760405162461bcd60e51b8152600401610402906112ef565b6001600160a01b0382165f9081526003602081815260408084208151608081019092528054825260018101549193909284019160ff1690811115610b2957610b296111d9565b6003811115610b3a57610b3a6111d9565b81526002820154602082015260039091015460ff161515604091820152815190519192506001600160a01b038516917f1b828142e2c933c3ad65bb25c1f6b6f4397fd350524a1d628d8dbb22e0d8a6a191610bd2917f00000000000000000000000000000000000000000000000000000000000000009087909283526001600160a01b03919091166020830152604082015260600190565b60405180910390a2505050565b610be7611038565b6001600160a01b039091165f90815260046020908152604080832093835292905220805460ff19169055565b610c1b611038565b6001600160a01b038116610c5e5760405162461bcd60e51b815260206004820152600a6024820152697661756c742d7a65726f60b01b6044820152606401610402565b600280546001600160a01b0319166001600160a01b0383169081179091556040517f6f43fd14172f3b8bcb6340bc9cec7d3d67ac9e331b9e077881cdc3211d34f365905f90a250565b610caf611038565b6001600160a01b0381165f908152600360208190526040909120015460ff16610cea5760405162461bcd60e51b8152600401610402906112ef565b6001600160a01b0381165f81815260036020819052604080832083815560018101805460ff199081169091556002820185905592018054909216909155517fabae6e64cb4315875c29d42347a312f5e9fce4ab564e9722b43dd78d0751135a9190a250565b610d5d62015180601e611363565b81565b5f80826003811115610d7457610d746111d9565b03610d815750603c919050565b6001826003811115610d9557610d956111d9565b03610da35750610e10919050565b6002826003811115610db757610db76111d9565b03610dca576108da62015180600e611363565b6108da62015180601e611363565b610d5d62015180600e611363565b610dee611038565b6001600160a01b0382165f908152600360208190526040909120015460ff16610e295760405162461bcd60e51b8152600401610402906112ef565b6001600160a01b039091165f90815260036020526040902060020155565b610e4f611038565b6001600160a01b038116610e7857604051631e4fbdf760e01b81525f6004820152602401610402565b610e818161108e565b50565b6001600160a01b0382165f908152600360208181526040808420815160808101909252805482526001810154606094869484019160ff1690811115610ecb57610ecb6111d9565b6003811115610edc57610edc6111d9565b81526002820154602082015260039091015460ff1615156040909101526060810151909150610f3257505060408051808201909152600c81526b1b9bdd0b585cdcda59db995960a21b60208201525f9150611031565b610f408160200151856108be565b610f765750506040805180820190915260118152701c195c9a5bd90b5b5a5cd85b1a59db9959607a1b60208201525f9150611031565b6001600160a01b0385165f90815260046020908152604080832087845290915290205460ff1615610fd3575050604080518082019091526011815270185b1c9958591e4b5c1c9bd8d95cdcd959607a1b60208201525f9150611031565b8060400151841161101c57505060408051808201909152601f81527f706572696f642d6e6f742d6c617465722d7468616e2d6c6173742d706169640060208201525f9150611031565b505060408051602081019091525f8152600191505b9250929050565b5f546001600160a01b031633146109945760405163118cdaa760e01b8152336004820152602401610402565b60026001540361108757604051633ee5aeb560e01b815260040160405180910390fd5b6002600155565b5f80546001600160a01b038381166001600160a01b0319831681178455604051919092169283917f8be0079c531659141344cd1fd0a4f28419497f9722a3daafe3b4186f6b6457e09190a35050565b80356001600160a01b03811681146110f3575f5ffd5b919050565b8035600481106110f3575f5ffd5b5f5f5f5f60808587031215611119575f5ffd5b611122856110dd565b935060208501359250611137604086016110f8565b9396929550929360600135925050565b5f5f60408385031215611158575f5ffd5b611161836110dd565b946020939093013593505050565b5f5f5f60608486031215611181575f5ffd5b61118a846110dd565b95602085013595506040909401359392505050565b5f5f604083850312156111b0575f5ffd5b611161836110f8565b5f602082840312156111c9575f5ffd5b6111d2826110dd565b9392505050565b634e487b7160e01b5f52602160045260245ffd5b6004811061120957634e487b7160e01b5f52602160045260245ffd5b9052565b8481526080810161122160208301866111ed565b836040830152821515606083015295945050505050565b5f60208284031215611248575f5ffd5b6111d2826110f8565b5f81518084528060208401602086015e5f602082860101526020601f19601f83011685010191505092915050565b8215158152604060208201525f6112996040830184611251565b949350505050565b828152604081016111d260208301846111ed565b84815260208101849052608081016112d060408301856111ed565b610a6460608301846111ed565b602081525f6111d26020830184611251565b6020808252600c908201526b1b9bdd0b585cdcda59db995960a21b604082015260600190565b634e487b7160e01b5f52601260045260245ffd5b5f8261133757611337611315565b500690565b634e487b7160e01b5f52601160045260245ffd5b5f8261135e5761135e611315565b500490565b80820281158282048414176108da576108da61133c565b808201808211156108da576108da61133c56fea26469706673582212207fcef91774efaf34cf48272a9c8b8133e4280d87d683360ea5d5d6854949816a64736f6c634300081c0033",
  "linkReferences": {},
  "deployedLinkReferences": {},
  "immutableReferences": {
    "303": [
      {
        "length": 32,
        "start": 918
      },
      {
        "length": 32,
        "start": 1712
      },
      {
        "length": 32,
        "start": 2961
      }
    ]
  },
  "inputSourceName": "project/contracts/SalarySchedule.sol",
  "buildInfoId": "solc-0_8_28-7c640f1ceae314610f9ee0515733b343b3bbcbc3"
}